:020000040001F9
:10800000B84100203D8101005781010059810100E4
:108010000000000000000000000000000000000060
:108020000000000000000000000000005B81010073
:1080300000000000000000005D8101005F81010080
:10804000618101006181010061810100B1C901000C
:10805000E5C9010000000000A9A801002189010074
:108060006181010061810100618101006181010084
:108070006181010061810100618101006181010074
:10808000B1DC0100A9C20100618101006181010030
:1080900089CB010091CB0100A9CB010061810100D6
:1080A000618101006181010000000000000000000A
:1080B00000000000000000000000000000000000C0
:1080C0000348854600F0FCFB00480047756102004C
:1080D000B8410020401E00BF00BF00BF00BF00BF6E
:1080E00000BF00BF00BF00BF00BF00BF00BFF1D195
:1080F00070470000401E00BF00BF00BF00BF00BFB0
:1081000000BF00BF00BF00BF00BF00BF00BFF1D174
:1081100070470000401E00BF00BF00BF00BF00BF8F
:1081200000BF00BF00BF00BF00BF00BF00BFF1D154
:1081300070470000B8390020B841002003210948E9
:1081400002680A430260084802680A43026007485E
:10815000804707480047FEE7FEE7FEE7FEE7FEE749
:10816000FEE70000240500405405004019CF01003F
:10817000C180010030B50B460146002020220124B9
:1081800009E00D46D5409D4205D31D469540491B4B
:108190002546954040191546521E002DF1DC30BD94
:1081A00070B500242546002801DA01244042002948
:1081B00001DA01254942FFF7DDFFAC4200D0404221
:1081C000002C00D0494270BD10B5431A934209D229
:1081D0008318881803E0401E01785B1E1970521E38
:1081E000F9D210BD03460B439B0703D009E008C931
:1081F000121F08C0042AFAD203E00B780370401C57
:10820000491C521EF9D210BDD2B201E00270401CCE
:10821000491EFBD270470022F6E710B513460A4606
:1082200004461946FFF7F0FF204610BD421C0178B6
:10823000401C0029FBD1801A704710B5002200E0D5
:10824000521C835C8C5CA34201D1002BF8D1D8B2C4
:10825000E1B2401A10BD30B504460020034600E0EC
:108260005B1C934203D2E05CCD5C401BF8D030BD78
:1082700030B505460020034600E05B1C934205D262
:10828000EC5CC85C201A01D1002CF6D130BD000096
:10829000F0B507460846584087B0C00F0490480024
:1082A0000E46590040084908BC1A884105D2384694
:1082B00031461E4617460B460246580040081043FA
:1082C0004CD0300D039040055900400D490D0590EC
:1082D000401A0290402872DA18030121000B0905A8
:1082E0000843019004980092002805D00199524259
:1082F0000020884100920190029840210A1A0199B9
:10830000009800F0F9F905460C466B4607CB00F0E3
:1083100014FAC0197141039A0E0D0023D717564065
:108320001A467A40164344D0049A002A2DD0029A65
:10833000012A039A15DC1205C01A9141012636055F
:10834000001C7141D20F059ED20700930192029644
:108350002A46234600F011FA07B0F0BD38463146F0
:10836000FAE71605224A0F46B218C01AB741012192
:108370000905001C4F4100187F411146181879412A
:10838000E20F10436D19644113E0E2076D081543D5
:108390006408C2071443039A01261205C01A9141CA
:1083A0003605001C7141CE07400830434908C0180B
:1083B00051412A46234600F0D3F9CDE7FFE7049860
:1083C00001224000C117121A00238B410498314644
:1083D000C417381AA141EEE730B40124E407634022
:1083E00030BC55E730B40124E407614030BC4FE7AE
:1083F0000000E0FFF0B51FB488B00B990998002485
:1084000048400999C00F490049080991C0070B99D4
:108410000090490049080B9109990898A64608431D
:108420001CD00B990A98084318D0099801244000E1
:10843000420D4800410D099824050003000B20431C
:1084400009900B980003000B20430B9050181C4917
:108450004018002201901446104605E00020014615
:108460000DB0F0BD032801DA034600E003239C466B
:10847000C11A0AAE0AE05F0008ADED5B4F00F75B82
:108480007D430027AA187C41491C5B1E6145F2DD33
:10849000410004AB5A522104120C0A43240C401C24
:1084A0000828DFDB01980290009970460191009046
:1084B000059B049A0799069800F05FF9D0E7000041
:1084C0000DFCFFFFF0B50C465C4085B0E40FE407FF
:1084D00003944C000026640859009446490802465B
:1084E0000296224321D062460A431ED06200570DF5
:1084F0004A000E032303550D012402462C4924058E
:10850000781B1B0B360B4018234326436146009013
:108510001C46501AB44103D30098401C009002E05E
:10852000921800985B41002803DA0020014605B04C
:10853000F0BD0020012109050746864611E064468A
:108540001D46141BB54106D36546521BB341744604
:1085500007430C43A646CD07400849082843921814
:108560005B4105460D43EAD11046184313D06046DF
:10857000194650407140084306D06046101AB34176
:1085800006D20122002306E000220123DB0702E0DD
:108590000122D2435310009874460105381C6141F2
:1085A000029C039D0019694100F0DAF8BFE7000062
:1085B000FD03000070B54B005B0803430BD04B007C
:1085C0005C0D002633466542B341D417AD1AA34172
:1085D00002DB0020014670BD12053018514170BD0C
:1085E0000EB5C217C10F5040CA0740180021054BF5
:1085F0000293019200910A460B4600F0BEF803B0C8
:1086000000BD0000330400000EB5054902910021B1
:1086100000910A460B46019100F0AFF803B000BD8F
:108620003304000070B5CD0F4A0009030123090B84
:108630001B0519430B4BED070024520D9A4201DA3A
:10864000002070BD074B34339A4203DC9A1A00F0C5
:1086500063F802E00449511888402C43F1D04042AD
:1086600070BD0000FF030000CDFBFFFF4A000903BF
:108670000123090B1B051943094B10B5520D9A42F2
:1086800001DA002010BD064B34339A4203DC9A1AFB
:1086900000F042F810BD03495118884010BD000099
:1086A000FF030000CDFBFFFF10B5002904DB012410
:1086B000E40740428C412146002B04DB1C46012389
:1086C000DB075242A3418B4200D1824210BD000021
:1086D00010B5002904DB0124E40740428C41214607
:1086E000002B04DB1C460123DB075242A3419942C5
:1086F00000D1904210BD000010B5202A04DB0146D5
:10870000203A9140002010BD914020239C1A03463E
:10871000E3401943904010BD10B5202A04DB084601
:10872000203AD040002110BD0B46D340D040202439
:10873000A21A91400843194610BD10B5202A06DB45
:10874000CB170846203A1041C1170B4306E00B46F1
:108750001341D0402024A21A91400843194610BD6D
:1087600010B5002B08DA0024401C614192185B41CF
:108770001A4301D14008400010BDF0B51FB482B0CB
:1087800005460C0003D0084605F0C0FB02E005F0EA
:10879000BDFB20300246009021462846FFF7ACFF83
:1087A000049B059A04460F4618431143084314D00E
:1087B000184610431BD0009840210A1A1846059904
:1087C000FFF7AAFF05460E46009A05990498FFF7A1
:1087D00093FF084305D0012004E02046394607B046
:1087E000F0BD0020C11705430E432C4337430099C9
:1087F0000E986305401A7905E40A00220C43FD0A2D
:108800000A3002D500200146E9E701051019694147
:108810000C9C0D9D00196941FFF7A2FFDFE7FEB533
:1088200000231A461B1A8A4103DB0020014603B0CD
:10883000F0BD4A000D0301212D0B0905520D0D431A
:10884000D10702D100186D41521E5110FF31FF3186
:108850000131002704463E46384600970191024602
:10886000012100200905FFF757FFC3197141F818CE
:10887000324684468E464A4161462846611A9041F6
:1088800004D36046241A954176461F462419009861
:108890006D41401C00903428E1DDF91930467041EB
:1088A000091BA84103D20022D243134601E0002253
:1088B000134601980105381C7141FFF751FFB6E7D7
:1088C000064C0125064E05E0E36807CC2B430C3C23
:1088D00098471034B442F7D3FFF7F6FBA09202009A
:1088E000C092020030B58C180278401C13071B0F91
:1088F00001D10378401C120906D10278401C03E024
:1089000005780D70401C491C5B1EF9D101E00B700D
:10891000491C521EFBD1A142E6D3002030BD00000D
:10892000044802680021002A03D0012201600248A5
:10893000426070470071004000700040F0B50E4684
:1089400001468DB0FF310746E531154668460C916A
:1089500000F05EF91C46103C2AD4314608A800F00D
:1089600057F908A80FC8079304AB07C304A93846F2
:1089700000F066F800990498103C484000BA28605E
:10898000019905981036484000BA68600299069827
:10899000484000BAA86003990798484000BAE860C8
:1089A00008A80FC803936B4607C31035002CD4DA10
:1089B00008A90C9800F02CF90DB0F0BDF0B50546F3
:1089C00000881435800032E02C681A4B1A4E610082
:1089D00031402246E609DF091A403E40921B174EFD
:1089E000FF43324051400E464A001E403A40F709CC
:1089F000F61B124F3E40724017461F400E4B56006A
:108A00001E40FB09FB1A0D4F3B405E400B46744075
:108A10005340734061401826F14159406240102391
:108A2000DA414A400821CC41544010C5401E042878
:108A3000CADCF0BD80808080FEFEFEFE1B1B1B1B7F
:108A4000F0B50E4695B00188079109010F18042072
:108A500014378100891980393F1FCA6F3B685A401B
:108A6000CA67401EF5D18FE00423481E1090D81C21
:108A70008007000F3058010E47484068425C991C3F
:108A80008907090F71580902090E415C0491591CAC
:108A90008907090F715A0904090E455C9907090FE6
:108AA000715C445C1099059888424FDA049910462D
:108AB0004840039000F030F9049906906940084658
:108AC000119100F029F904902846604000F024F943
:108AD00008902046504000F01FF913900499069822
:108AE000484000F019F90B9004990898484000F0AC
:108AF00013F90B990A90484000F00EF98446119939
:108B00000B98614041406046414006986A404140B0
:108B10000A986240424060464240049842400398AE
:108B200044400B98444060464440089844400398B1
:108B300045400A9845406046454013984540080620
:108B40001104084321020843284306E00499100653
:108B5000090408432902084320439A000CA951182C
:108B60008039C8675B1E82D104200CAA81008B1853
:108B7000803B3F1FDB6F3C68891963408039CB67BE
:108B8000401EF3D10598401C07990590884200DAF1
:108B90006AE715B0F0BD000000200020F0B5C1B0BC
:108BA00003F06EF8194BC11DF93103C300220121F6
:108BB0006C46FF27CE091C37A1544D007E437540FB
:108BC0006940521CFF2AF4D9632500230570FF2752
:108BD000F91A615C0A020A431109560971409609A3
:108BE0007140D60971405140E25C69405B1C815480
:108BF000FF2BEDD3054900200A684968135CC8546F
:108C0000401CFF28FAD941B0F0BD00000020002030
:108C10000A6812BA02604A6812BA42608A6812BAD6
:108C20008260C96809BAC16070470000FEB5054698
:108C30000C463748FF2100901E46F5312846FFF7C5
:108C4000EAFA002E11D0012E61D10E202880214693
:108C50002846082610311430FFF7DAFF2146281D78
:108C6000FFF7D6FF6E80374644E00A2028800426AE
:108C7000F4E7B80001902C5831463846FFF790FAD7
:108C8000002918D12348E2B20068825C1302220452
:108C9000120E825C12041A4323021B0EC35C1B06D5
:108CA0001343220E805C009A184312781406444045
:108CB0000098401C0090082E13D1042911D11548AA
:108CC00022040068120EE1B2825C415C12020A4387
:108CD0002102090E415C09041143220E805C040646
:108CE0000C43B81B8000401941680198614040194D
:108CF0007F1C416028888000001DB842B9DC00203C
:108D0000FF350146E135401C29711028FBDBFEBD13
:108D1000EA8802000020002001064000002901DA54
:108D20001B214840C0B27047002800DA404270471B
:108D300010B500231A4606E0C40701D05B1CDBB265
:108D40004008521CD2B28A42F6D3184610BD10B564
:108D50000DF0C0FB10BD10B5FFF742FC0EF004FF94
:108D6000FFF760FC10BD00000848017B022907D016
:108D7000017D1E2902D8C07C782804D900207047C4
:108D800000210175C174012070470000BC2400203F
:108D900004490A7B022A04D00A7D1E2A01D8101831
:108DA00008757047BC24002010B502F01BF800289D
:108DB00010D102F025F800280CD100F045F80D493B
:108DC000002802D00020C88104E0C889FF212D318D
:108DD000884201D2002010BD00F06CF9002802D0BA
:108DE000072000F01BF901F0F3FD03F0AFFB0120B9
:108DF00010BD0000B824002007490A7B022A09D0D0
:108E00000A46A43A127F002A04D1CA7C782A01D8E3
:108E10001018C87470470000BC240020094800B531
:108E2000002201464273C0310A81CA8100F00CF869
:108E3000002804D0022008740A76CA7500BD0A749E
:108E400000BD0000F823002004480069C00CC007E2
:108E5000C00F01D00020704701207047000500506E
:108E600000B5FFF7F1FF002803D10448407B052837
:108E700001D9002000BD012000BD0000F823002022
:108E8000F8B5184C00F0AAFA0146607B002819D00A
:108E900001281AD0022818D10D4607F003FD2074CE
:108EA000617C26460027C43E002913D0677401F078
:108EB00099FF01000C4802D0817D002906D08775FA
:108EC000207C0AE0204605F013FBF8BD207B022839
:108ED00005D005E0717B884202D27073F6E7256009
:108EE0006773F8BDBC240020B824002010B501F041
:108EF00035FE10200DF0C8FA03494881012048755D
:108F00000220487410BD0000B824002000B50246BD
:108F1000FFF79AFF002809D005490889801880B218
:108F2000E12252010881904200D90A8100BD00006F
:108F3000B824002010B51F4B002286B000282FD087
:108F400016292DD14178E1290BD0E22904D0E3295B
:108F500004D0E42904D023E0012202E0022200E050
:108F60000322142469460C820024D1000094019449
:108F70000294C91803948A8B69460A8001228A7078
:108F80008C8004A9801C02910390988A6946A6DF10
:108F900008494031002806D0074A904200D10C779A
:108FA000002006B010BD087F012801D9401E0877B7
:108FB0000120F6E7442700200430000070B5FEB021
:108FC00015460E460446FFF7E9FD00231A462146E2
:108FD0006846FFF72BFE6846FFF7F0FC40232A4661
:108FE00031466846FFF7AAFC7EB070BD30B50C462E
:108FF0008DB01546014610226846FFF7E5F81022AD
:10900000214604A8FFF7E0F868464DDF1022284605
:1090100008A9FFF7D9F80DB030BD000010B5074C16
:109020001321A08A76DF002803D005A2C4210AF00C
:10903000D0FD02204034607710BD0000442700209E
:109040002E2E5C736F757263655C62746C652E6343
:109050000000000070B50646FFF7F6FE00250E4C36
:10906000002809D1FFF7FCFE002805D001F0BAFE68
:10907000002801D0657770BD084880790028FAD0B3
:10908000002E01D0A57701E00120A07701F098FD26
:109090000520607770BD000084270020F8230020A1
:1090A0001CB50446684666DF68468088207001204B
:1090B0001CBD00000348407F042801D000207047F9
:1090C00001207047842700200348407F002801D0FA
:1090D00000207047012070478427002070B52E4A79
:1090E0000388114600254031172B1AD01ADC012BBA
:1090F00028D0102B2BD0112B13D1681E9082012069
:109100001446487708F018FD00F04AF802F0FCFB1E
:10911000A07D800705D402F04BFD002801D003F0AC
:10912000F1FE70BD192B27D0392B03D0502B20D046
:10913000552BF6D1FFF7BEFF0028F2D00520FFF730
:109140006DFF70BD0A7F007A1018087770BD8088A7
:109150009082042014460E46487700F03FF92060C4
:10916000F57700F03BF90D49086020465C3062DF7E
:1091700070BD08F019F970BD80790028FBD1487FD7
:109180000528F8D1887F022803D00020FFF762FF6E
:1091900070BD4D7770BD000044270020F8230020EB
:1091A00006480021017641768181C181817604489B
:1091B000C1794906490EC17170470000442700205B
:1091C000F823002038B51E4C08F0B6FC20465C3071
:1091D00062DF0121684681701F21C9430180224658
:1091E000123269460120A0DF002827D1012115484D
:1091F0000AF03AFE13480221401C0AF035FE1148DD
:109200000321801C0AF030FE0E480421C01C0AF025
:109210002BFE0C480521001D0AF026FE09480621F8
:10922000401D0AF021FE07480721801D0AF01CFEA0
:1092300004480821C01D0AF017FE002038BD0000B8
:1092400044270020E1FF000010B5104804464034D8
:10925000617F0B0004F071FE050F040F0F120F0069
:10926000C08A002801D006F08BF9A07F002803D027
:109270000020FFF7EFFE10BD0120FAE701F0B2FD7C
:109280000028F8D000F004F810BD000044270020AA
:1092900070B500F0A3F80546344C02F089FC0028B4
:1092A00007D0334920684018A8425DD203F02AFE57
:1092B0005AE0A07E0A2802D901F01CFD54E02D4995
:1092C00020684018A84204D2FFF76AFF01F012FD9F
:1092D00004E0A089002801D100F05CF82648C0799C
:1092E000000641D5E089A189884205D20120C0034A
:1092F00000F066FA00280DD1607E217E884225D2DA
:10930000208A01263603FF2806D8304600F08EF961
:10931000002801D0012070BD607E401CC0B2607684
:10932000217E88420DD2002020820122052113A037
:1093300000F076FFA060002808D0304600F076F9F3
:10934000E8E7012205210DA000F06AFF7D21606899
:10935000C9004018A84207D201F0CCFC00F022F965
:109360006560A07E401CA076002070BD44270020D0
:1093700030750000204E0000F823002065706F63F8
:10938000680000000248007F002800D001207047DC
:109390008427002070B50D4D0120C002A881002453
:1093A000EC8105210AA000F05BFD0006000E287686
:1093B0006C7606D00022052105A000F031FFA860E0
:1093C0002C8205480472447270BD000044270020BE
:1093D00065706F6368000000B825002010B503F0C9
:1093E000F9FB10BD70B5214A017813469C3B090278
:1093F000198144781E4D091989B200241981A942A6
:109400000DD1146054608178C01C9972002903D07A
:10941000012903D10AF06EF900F096F870BD144DE1
:109420006D1CA9420FD114605460C1780902196003
:109430000279114309021960427911431960817957
:10944000997200220DE00A4A921C914202D0521CED
:109450009142E3D1C1780A020179114342790902AC
:109460000A43811D184609F03DFC70BD7826002096
:10947000E5FF0000F8B520480090051D80792F46D3
:10948000401CA870FF20E870E2202871A87868715D
:109490008037072078620020A871E87107212972BF
:1094A0002E46A036F8617073B8622C4630700B22DD
:1094B0001934025501216A702970009801700F4813
:1094C000827E0A55C27E03213173022002550B4968
:1094D000E01C04221031FEF777FE07203073284687
:1094E000102221460930FEF76FFE10207073F861DC
:1094F000009802210170F8BD0025002018270020E7
:1095000070B5104B10221846FF300D308178FF24C3
:10951000491C8170FF21B131CA50FF21C170E12186
:109520000171B9340122E254014600261B2519318C
:10953000755445700270031F02241C70401DFEF715
:1095400043FE70BDF8230020F8B5154E10213446B7
:10955000FF340D34A0782746401CA070FF20B130A6
:109560008151FF20E070E1202071A03725460122C3
:1095700019353A7300214955F11D681C0922261F2F
:10958000FEF722FE0A223A7300206070012020704C
:10959000022030702946601DFEF716FEF8BD00005F
:1095A000F823002070B51F4C2546FF35C5352879B6
:1095B000FF34CF34002833D1FF202070E1206070C9
:1095C0001620A070174800268030016A090EE1704D
:1095D000016A090C2171018C090A6171008C114921
:1095E000A0710A6C486C8018020EE271020C2272A3
:1095F000020A6272A072E6722673C86C0009020A3F
:109600006273A073886C0009010AE1732074064834
:10961000C07B607403F020FDA074E6740120287103
:1096200070BD0000F8230020D82A0020F0B593B0C8
:10963000064601A8009005A80B9001A80A905E4C70
:1096400005A80D902079002802D16079002802D069
:10965000012013B0F0BD0D22584892018518032255
:109660001202A17980180E90002923D000271CE057
:10967000A88B00010C90B0421AD20E980422416DC2
:109680000C98081801A900F087FE019804224000F8
:10969000400801900E98416D0C98081801A900F03F
:1096A000D5FEA88B401CA8837F1C2089B842DFD838
:1096B0000020A071A88B0701B74201D30020C8E7A2
:1096C0000120208116E00E981022406D0099C019EB
:1096D00000F062FE00980078FF2806D0019800286C
:1096E00003DA40004008019006E0A88B401C80B2DD
:1096F000A8830701B742E6D3B7424CD2A88B050135
:1097000046E00E981022406D0B99401900F044FE7F
:109710000B980078FF283ED0059800283BDA4000DF
:10972000400801990590884235D90D98017A0A9828
:10973000007A81422FD10D98417A0A98407A81426D
:1097400029D10D98817A0A98807A814223D10D9887
:10975000C17A0A98C07A81421DD10D98017B0A987E
:10976000007B814217D10D98C1880A98C088814238
:1097700011D10D98417B0A98407B81420BD10D9805
:10978000817B0A98807B814205D12089401C208101
:109790001035B542B5D32389012B01D9092201E047
:1097A0000023082220460A300A9906F0E7FC01202F
:1097B000207160714CE70000BC250020F8230020D8
:1097C000F0B591B0064601A8079008A80C9001A832
:1097D0000690574C08A80D902079002802D1607996
:1097E000002802D0012011B0F0BDA079514D002811
:1097F0001ED0002717E0688B0001B04216D2042269
:109800001303C01801A9009000F07EFD0198042206
:1098100040004008019001A9009800F0DBFD688B32
:10982000401C68837F1C2089B842E4D80020A071C6
:10983000688B0701B74201D30020D4E701202081C3
:1098400015E0102290023818079900F05DFD079886
:109850000078FF2806D00198002803DA400040086D
:10986000019006E0688B401C80B268830701B74214
:10987000E7D3B7424BD2688B050145E01022900236
:1098800028180C9900F040FD0C980078FF283ED075
:10989000089800283BDA4000400801990890884267
:1098A00035D90D98017A0698007A81422FD10D980A
:1098B000417A0698407A814229D10D98817A06989A
:1098C000807A814223D10D98C17A0698C07A81426C
:1098D0001DD10D98017B0698007B814217D10D9810
:1098E000C1880698C088814211D10D98417B0698A5
:1098F000407B81420BD10D98817B0698807B814211
:1099000005D12089401C20811035B542B6D323896A
:10991000012B01D9092201E00023082220460A3048
:10992000069906F02BFC0120207160715AE70000B7
:10993000BC2500203827002010B5002405F0DAF8F7
:10994000002803D0641CE4B2052CF7D310BD00003E
:10995000F0B5044610460022084E0AE02578070AB2
:109960007D406D00755B00024540521CA8B292B26A
:10997000641C8A42F2D35840F0BD0000488B0200BC
:1099800010B50C4609F0F4F90448017A0246490082
:10999000103254520121417210BD00006421002098
:1099A00003481321C08A8903C001081A70470000C8
:1099B0004421002070470000F8B52B4CA0792346C5
:1099C000203B85011E468446E179DA8A30360DE077
:1099D0004800305A254FB84207D140104F00F0538D
:1099E0006818521C80B2DA8230E0491C4029EFD35B
:1099F0001320C001824235D0607A002804D01A4971
:109A00006046103100F00EFD174E0027203E26E084
:109A1000A079884226D2401C1349C0B24035A071BB
:109A2000ADB2103100F09EFC104800210E4A4B00F0
:109A30001032D25A82420ED10B4A0D484B001032DE
:109A4000D0526818F28A80B2521CF282491CE1712D
:109A500001216172F8BD491C4029E7D37F1CF168E0
:109A6000B942D5D80020F8BD64210020FF7F000056
:109A7000FF3F000010B509F07BF903480249007A66
:109A800040001031085A10BD64210020F0B51A4C76
:109A9000A1B0A18BA068FEF76DFB00252646E082F1
:109AA0003036164F17E06946284600F05BFC124836
:109AB000802269463030FEF787FB00204100715A52
:109AC000B94202D0E18A491CE182401C80B24028A0
:109AD000F4D36D1CADB2E068A842E4D8064D002472
:109AE00020352946AC711031204600F03BFCEC716A
:109AF0006C7221B0F0BD000044210020FF7F000007
:109B0000F0B5C1B0354C6946002000F015FC80204E
:109B100020836D4620A9032000F00EFC3FA80230F0
:109B200001F030F92E49002788424ED128463630C0
:109B300001F02DF92B490002884246D102A80330DA
:109B400001F020F9218B88423FD105A8023001F0B5
:109B500019F9E06068462646007C203630730128FB
:109B600033D16846407BA08304A8013001F00AF994
:109B7000E08304A8033001F005F9208403A8023033
:109B800001F000F960840120218B0004FEF7F2FA55
:109B90000546208CA84218D3A18B401BFEF7EAFA99
:109BA000A0840220B072A560608C2060E08B002849
:109BB0000CD068086060A08C218B4000401E081803
:109BC000FEF7D8FAE168884202D9002041B0F0BD22
:109BD0000020C0432061A7820120F7E74421002034
:109BE00055AA00000046415410B530210248FEF746
:109BF00012FB00F003F810BD44210020F0B55F4CCB
:109C0000A7B02046203002212690229081726D4616
:109C100080212846FEF7FFFA2946012000F0F3FBD9
:109C20002946022000F0EFFB802626836683012070
:109C3000A0831320C0012084042060840002E083FC
:109C400041100F20C001A0841E20E060229801274F
:109C5000077304202060A16080016060F0228021F1
:109C600028462592FEF7D7FA0B2245A12846FEF793
:109C7000ABFA6946CE72002008734F7304228A73D0
:109C8000C8730F7448748A74CE7409220A75259AB1
:109C90004A753F220A764876FF228A76C876087788
:109CA00048778877C8770BF0ABFE08A9C871020A1D
:109CB0000A72020C4A72000E8872A0896946887581
:109CC000000AC87508A90E71292088712846132238
:109CD0002EA12B30FEF778FA2946002000F093FBE6
:109CE000218B2846FEF797FA552018A98877AA20D5
:109CF000C8772946032000F086FB00207F262490A9
:109D000035E0FF2280212846FEF77EFA01202E54FE
:109D1000801C8028FBD3FF212598C943014329706B
:109D20001F4A010A11436970010C12121143A970F4
:109D3000000EFF210843E8702946002000F072FB66
:109D400001270EE0FF2280212846FEF75DFA012060
:109D50002E54801C8028FBD32946384600F062FB35
:109D60007F1CE068B842EDD82498401C24902698C7
:109D7000017B24988142C4D827B0F0BD4421002043
:109D8000EBFE904D53444F53352E30004E4F204E36
:109D9000414D4520202020464154202020202000F5
:109DA000FFFFFF0010B50548417A002904D00349A0
:109DB0008079103100F036FB10BD000064210020D6
:109DC000F1B50026A8B0354600F0AEF802F00EFA64
:109DD000074600212898002F016001D0002415E0DB
:109DE000002029B0F0BD20A9204602F0B9F90028D2
:109DF0000AD0761CB6B26946204602F0C5F968461C
:109E0000FEF714FA45190835641CA4B2BC42EAD323
:109E1000289805603046E4E770B5A8B0064600F023
:109E200083F802F0E3F9050018D0002414E020A91B
:109E3000204602F095F900280CD06946204602F031
:109E4000A3F931466846FEF7F8F9002802D120460A
:109E500002F068F9641CA4B2AC42E8D328B070BD2B
:109E6000F3B5A9B0299800260F46002824D0002F6A
:109E700022D000F059F802F0B9F905001CD001A871
:109E80000024009016E0A0B221A902F069F9002890
:109E90000FD0A0B201A902F077F9002006E00099E6
:109EA0000A5C2999095C8A4203D1401CB842F6D366
:109EB000761C641CAC42E6D330462BB0F0BD0000EB
:109EC00010B504002DD0E07C00282AD1A07C002809
:109ED00002D0204609F01AFDE08902F063F9E28918
:109EE0000146104602F0B2F9218AE08902F096F9A3
:109EF0000C48808D02040B482030817B11430A02FC
:109F0000C17BE089114302F095F9E089216802F0F4
:109F1000CFF8FFF747FF02F0A5F90020207502F007
:109F20004BF910BD7824002010B50548007D0028AD
:109F300005D00348FFF7C4FF002001F06DFE10BDFF
:109F4000F4210020002803D00068002800D0012060
:109F500070470000F0B5CDB00D4624A9019104A9C9
:109F600000910146802204A8FEF72EF9FFF7DCFFDE
:109F7000334C0026E574012D26D0FFF787FDFFF74F
:109F80000FFD0521C90288424DD3FFF715FD0500DD
:109F900049D0FFF711FD69460881020045D02946E6
:109FA000009802F091F8411C41D0711E2182A674E4
:109FB0002081694609896181A1812660E0810120B3
:109FC00020751F484DB0F0BD02F010F907002AD0EF
:109FD000002510E0A8B244A902F0C2F8002809D078
:109FE000A8B2019902F0D0F800990198FEF725F97E
:109FF000002802D06D1CBD42ECD3BD4213D2A8B2E2
:10A00000E08103AA02A902F0F7F820828020A07460
:10A01000E0892081684600896081A08103982060E2
:10A0200060602675CDE70020CCE7284604E028468E
:10A03000FFF7C0FC68460089FFF7BCFCF3E70000AF
:10A04000F4210020F8B516460F46050007D0286811
:10A05000B04200D2C6B2A87C802802D004E0002022
:10A06000F8BD284607F070FDA87C1C498219802A9B
:10A0700009D2411832463846FEF7A6F8A87C344685
:10A080008019A8741EE08022121AD4B24118224608
:10A090003846FEF799F8381900901BE0301BC7B21C
:10A0A000802F00D380273A460C490098FEF78CF8A1
:10A0B000E019C4B20098C0190090802F0AD0AF7484
:10A0C000B442EBD32868A04200D2C4B2001B28607F
:10A0D0002046F8BD284607F037FDF1E78C22002026
:10A0E000F8B516460F46050014D02A8A3146384680
:10A0F00002F0B8FD2882A87C1F498219802A0BD261
:10A10000401832463946FEF75FF8A87C344680197D
:10A11000A87427E00020F8BD8022121AD4B240189B
:10A1200022463946FEF750F8381900908020A8746E
:10A13000284609F0EBFB002812D113E0301BC7B210
:10A14000802F00D380273A460B480099FEF73CF851
:10A15000E019C4B20098C0190090802F04D0AF74E9
:10A16000B442EBD32046F8BD8020A874284609F0FD
:10A17000CDFB0028F4D1F5E70C220020F7B5A8B0FC
:10A180000E460024FFF7D0FE02F030F80746002507
:10A1900042E06946284601F0E3FF00283AD02898BB
:10A1A000844235D1019808AF010E2A9831540198A4
:10A1B0002A9C000C641C30550198641C000A305520
:10A1C000641C0198305568460089641C000A3055AB
:10A1D00068460089641C305539462846641C01F0E5
:10A1E000D3FF3846FEF722F8401C85B27F20001BC3
:10A1F00080B2854200D90546002078553555641C4B
:10A2000030192A463946FDF7DFFF60192BB0F0BD43
:10A21000641CA4B26D1CADB2BD42BAD32A98F5E756
:10A22000F7B5AAB00020009001200F460190FFF77B
:10A230007BFE01F0DBFF050024D002AE00241FE00E
:10A24000A0B222A901F08CFF002818D0A0B202A968
:10A2500001F09AFF002005E02A99325C095C8A42ED
:10A260000DD1401CB842F7D32C9800280DD001988E
:10A2700000280AD0A0B201F055FF00200190641C14
:10A28000AC42DDD300982DB0F0BD01213046FFF780
:10A2900061FE002805D081890122C90112048918B4
:10A2A0000091FFF70DFEEDE770B5A8B00646FFF789
:10A2B0003BFE01F09BFF050014D0002410E0A0B28B
:10A2C00020A901F04DFF002809D0A0B2694601F095
:10A2D0005BFF31466846FDF7B0FF002805D0641CDF
:10A2E000AC42ECD3002028B070BD0120FBE7000099
:10A2F00010B518210348FDF78EFFFFF7C7FB01F0EB
:10A30000C1FF10BDF421002070B50D460446C109FF
:10A310001646042000F0BCF8002807D01320800364
:10A3200020183246294601F07FF870BDFF228021B7
:10A330002846FDF769FF70BD70B504460D462146FD
:10A34000002000F0A5F8002805D0E0018022294671
:10A3500001F06AF870BDFF2280212846FDF754FF06
:10A3600070BD000070B504460D462146012000F086
:10A370008FF8002808D00748802200682946001975
:10A38000C00101F051F870BDFF2280212846FDF781
:10A390003BFF70BD4421002010B501F045F810BD11
:10A3A00070B504460D462146022000F071F80028E1
:10A3B00008D007488022406829460019C00101F0F2
:10A3C00033F870BDFF2280212846FDF71DFF70BDC8
:10A3D0004421002070B50E460446C109A0B01546C0
:10A3E000042000F055F800280BD02A463146684674
:10A3F000FDF7EAFE1320800320182A46694601F083
:10A400002BF820B070BD70B504460D4621460020E3
:10A4100000F03EF8002804D0E0018022294601F037
:10A420001BF870BD70B504460D462146012000F0B2
:10A430002FF8002807D00448802200682946001918
:10A44000C00101F009F870BD4421002030B5A1B071
:10A45000054614466846FDF7B7FE2246694628467B
:10A4600000F0FAFF21B030BD70B504460D4621461C
:10A47000022000F00DF8002807D004488022406830
:10A4800029460019C00100F0E7FF70BD44210020FB
:10A4900010B5030003F051FD0504070A0D1021005B
:10A4A00004290DD219E0FC290AD216E0FF2907D8A9
:10A4B00013E00F20C00101E00120400281420CD3D3
:10A4C00000F090FC002801D0002000E0012000F006
:10A4D0000EF802F0F9FC002010BD012010BD132180
:10A4E000890310B54018032100F0A5FF10BD70B519
:10A4F000054600F014F80446284600F003F8001959
:10A5000080B270BD014610B50020002906D013218D
:10A5100010248903204604F09FFB204610BD10B58F
:10A520004C240021204604F097FB204610BD00007B
:10A5300070B504460D4621460320FFF7A9FF002809
:10A5400008D007488022806829460019C00100F021
:10A550006BFF70BDFF2280212846FDF755FE70BDC0
:10A560004421002070B504460D4621460320FFF724
:10A570008FFF002807D004488022806829460019F0
:10A58000C00100F069FF70BD44210020F8B500252E
:10A5900007462E462C460095385D002846D00146D9
:10A5A00020395E2918D8582D13D9761CF6B200250B
:10A5B00003213046FDF7DEFD00290AD1204800992D
:10A5C00041181B208001081844710098401CC0B23B
:10A5D00000900835EDB20BE000090E2808D13819BB
:10A5E00041788909022903D180788009022801D0A5
:10A5F000641C18E0502D13D9761CF6B200250321F7
:10A600003046FDF7B7FD00290AD10D4800994118E1
:10A610001B208001081844710098401CC0B20090B3
:10A620001035EDB2E41CE4B2802CB5D303213046E2
:10A63000FDF7A0FD002901D0401CC0B2F8BD00000C
:10A64000F8230020FFB500268FB004463546374674
:10A65000019001F0ADFA00287ED11098805D0028AD
:10A660006AD0022F01D3502D66D8014620395E29C9
:10A6700032D81199082902D010290ED029E00821DA
:10A680004B04C000C018FF3804AA013800F0E4FFF2
:10A69000019804A94019082219E004AA102105F024
:10A6A00037FE582D08D901980025C0307F1CBFB255
:10A6B00012950190022F6AD201980822401904A92C
:10A6C0000C90FDF781FD0C98082206A96030FDF77B
:10A6D0007BFD0835ADB20CE000090E2809D11098B9
:10A6E000801941788909022903D1817889090229D1
:10A6F00001D0761C1DE0502D07D9022F47D20199B9
:10A700000025C0317F1CBFB2019104AA202105F0B1
:10A710000BFE01981022401904A90C90FDF754FD7E
:10A720000C98102208A96030FDF74EFD1035ADB22F
:10A73000F61CF6B2802E90D31298002827D020461F
:10A7400060306022511B49100B061B0E1FD011995F
:10A7500000255F34082900E019E005D05F30E61AD3
:10A76000C71A0021D21A1EE0E11A0020D21A05E011
:10A770000B78401C2370491EC0B2641E8242F7DC75
:10A7800003E0401C2570C0B2641E6028F9D313B0EA
:10A79000F0BD337823703B780370491C401E641E63
:10A7A000761EC9B27F1E8A42F3DC05E02570057073
:10A7B000491C401EC9B2641E6029F7D3E7E70000B8
:10A7C000FEB5384F04463D462846A030A8350A4617
:10A7D0000090632901D3632226E0092A24D80807C0
:10A7E000000E3E182046082231463430FDF7ECFCBE
:10A7F0003146204608310822B430FDF7E5FC2046FA
:10A8000008213C30FDF707FD20460821BC30FDF74C
:10A8100002FD2046082244300099FDF7D5FC0822AD
:10A8200020462946C43039E00A211046FDF7A2FC33
:10A8300009070007090E000E0191391820460E463F
:10A8400008223030FDF7C0FC31462046083108228E
:10A85000B030FDF7B9FC019920467E180822314638
:10A860003830FDF7B1FC3146204608310822B830B7
:10A87000FDF7AAFC204608214030FDF7CCFC20461D
:10A880000821C030FDF7C7FC204608224830009957
:10A89000FDF79AFC204608222946C830FDF794FCB3
:10A8A000FEBD0000E68902000348C16B002901D00B
:10A8B0000021C163704700004061004010B50021D5
:10A8C000102006F049F96420FEF741FA012110201A
:10A8D00006F042F910BD000010B50121002006F07D
:10A8E0003BF92F4802240460001D0460001D046031
:10A8F00000222146042006F021F929481030046086
:10A90000001D0460001D04600121082006F024F9E8
:10A9100003221146092006F011F901210A2006F050
:10A920001BF91F4828300460001D0460001D0460EE
:10A93000001D0460001D04600121102006F00CF9C8
:10A940001748403004600021122006F005F9032268
:10A950000021132006F0F2F80121142006F0FCF883
:10A960000F4850300460001D0460001D0460012188
:10A97000182006F0F1F80A486030046000211A201F
:10A9800006F0EAF806486C300460001D04600121FE
:10A990001E2006F0E1F802487830046010BD000087
:10A9A0000407005001200449C00748600321062025
:10A9B00033DF06202EDF70470063004010B50348E8
:10A9C0008079002801D002F0D1FA10BDF8230020D0
:10A9D00010B500211B2006F0BFF822490020887125
:10A9E000214902200860091D0860091D0860091D31
:10A9F0000860091D0860091D0860091D0860091D1F
:10AA00000860091D0860091D0860091D0860091D0E
:10AA10000860091D0860091D0860091D0860091DFE
:10AA20000860091D0860091D0860091D0860091DEE
:10AA30000860091D0860091D0860091D0860091DDE
:10AA40000860091D0860091D0860091D08600649A5
:10AA500070310860091D0860091D0860091D086043
:10AA600010BD0000F82300200007005010B50121A0
:10AA70001B2006F071F802490120887110BD00000A
:10AA8000F82300201CB5002812D0012810D1094954
:10AA9000094C0869496901910090607C002807D041
:10AAA00068460BF075FE002060740120FEF74FF938
:10AAB0001CBD0000988A0200F82300201CB5002865
:10AAC00011D001280FD10849084C8868C968019144
:10AAD0000090607C002806D168460BF071FE0120D2
:10AAE0006074FEF734F91CBD988A0200F823002038
:10AAF00000B587B0002820D01149002303C9049075
:10AB0000CD20C004059102900D2000900B200190F3
:10AB10000320694608731A4604A80BF085FE002836
:10AB200003D008A2D32109F054F804A80BF048FE82
:10AB3000094901204874FEF70AF907B000BD00007A
:10AB4000988A02002E2E5C736F757263655C677065
:10AB5000696F2E6300000000F82300201CB5044933
:10AB60008869C9690090019168460BF06DFC1CBDB5
:10AB7000988A020070B50546FEF730FC06460024B0
:10AB800001F0A2FC0121122005F0E6FF07E003F02E
:10AB9000EFF848DFFEF722FC841BAC4201D8AC4240
:10ABA000F5D30021122005F0D7FF70BD10B50028A5
:10ABB00001D0012100E00021122005F0CDFF10BDE1
:10ABC00010B517499EB003C91D911C900624382169
:10ABD0006846FDF720FB6846C470022404821CA866
:10ABE000059038210EA8FDF716FB08A804760EA9DB
:10ABF000684609F004F97D24E400002803D02046CB
:10AC0000FEF7A5F835DF03F0FBFC064873DF0028EC
:10AC100003D02046FEF79BF835DF1EB010BD0000C4
:10AC2000B88A0200E0230020FEB51B4CFEF7D6FBDD
:10AC30001A4925460860002640352046AE772C3854
:10AC4000C078012822D00227022823D000200AF051
:10AC500063F8E08A3843E0821021684601802021B1
:10AC6000418004218180C821C1800122019900987E
:10AC700009F0BEF9002808D1684609F075F90028E6
:10AC800003D12046EE775C3062DFFEBD02200AF081
:10AC900043F8E1E70120DAE744270020F823002009
:10ACA00010B5FFF7E3FE02F01BFD01F00DFB03F012
:10ACB000E1FC0DF0B9FCFFF70FFE0021084601F0A2
:10ACC000A9FE0B4901200874FFF712FF00F0CBFB2F
:10ACD00001F0AEFFFFF766FE01F0FEFCFEF79EF806
:10ACE0004B20C000FEF733F802F0AEF910BD0000B3
:10ACF000F8230020FEB5204CFEF770FB064600F05E
:10AD000057FF002805D11D481D4A01688918B14226
:10AD100001D90020FEBD254601274035AF770660EA
:10AD2000C82168460180FF21413141800421818092
:10AD30004B21C900C18000220199009809F058F9FF
:10AD4000002817D10C482C38C07801280AD00228D6
:10AD50000AD0002009F0E0FF684609F005F9002854
:10AD600004D007E00220F5E70120F3E72046EF7763
:10AD70005C3062DF0120FEBD44270020F823002064
:10AD80008813000041780078090208437047C178B1
:10AD90000A02817811430A024178007811430902BE
:10ADA0000843704710B5074C0020FFF798FB0120BF
:10ADB0000003FFF794FB0020207620606060A06015
:10ADC00010BD00001C27002010B5054C0C222146A8
:10ADD0000020FFF799FA0020E0752076A07510BDDD
:10ADE0001C27002004480549808C884201D101209D
:10ADF0007047002070470000F8260020A57F000063
:10AE00000148007E7047000018270020F0B591B07F
:10AE1000FE4CFEF7E3FA0746022002F069F8192219
:10AE2000FB4852018618217E0322120285180B006E
:10AE300003F083F8110A375D7988C0D1F0EFEEEDA9
:10AE4000ECEBEAE9E8E7EB00F148C079810606D5CA
:10AE5000F04D0120AF6120762020607507E04106AB
:10AE600011D5EC4D0520AF612076402014E000F0B4
:10AE700007FFFF30FF300230E8608030286140304B
:10AE8000A86011B0F0BD800708D5E24DE248AF617F
:10AE9000E8610D20207602207076E8E700207076C9
:10AEA000EFE7012030766F63DA4DFF202870AF6145
:10AEB000A86801F09FFFA868D8491430286203F001
:10AEC00011F80A22A968E868FDF77EF9E86806210A
:10AED0000A3005F0B7F8E9682C20887206F082F98C
:10AEE000EA6828691146FEF781F8022002E1C94D9F
:10AEF0001022A96819312962E86802F0D5FFA96813
:10AF00000A220A31E868FDF75FF9E86806210A308D
:10AF100005F098F8E9682C2088720A462869FEF73F
:10AF200065F80320E6E0BB4D2C20A9683922505477
:10AF30003A3129621022E86802F0B6FF0420207638
:10AF4000002043E1022001F081FF002825D003F01A
:10AF500005FD0021B2A0FEF7FDFFAE4D00905A2284
:10AF6000A968FFF7BDF80098FEF7AAFF022001F0DC
:10AF7000BFFF002020766F61A5492870CA79DF23C2
:10AF80001A40CA71A880707E202889D10120A0753E
:10AF9000801EE060FEF76EFA73E79E4881884A1CC7
:10AFA00082807D20C0008142F6D90B2020760E20C1
:10AFB000E07566E70120307695486F63C0794006FA
:10AFC000EAD50620207600209249FF2288704A7038
:10AFD00088808F6155E7022001F038FF002849D0B2
:10AFE0008C4D0026AE8093A0FFF75EF9012812D0A9
:10AFF0000B2020766E700320E075022001F078FFB0
:10B000003FE751E142E125E1E2E057E1BAE073E0D8
:10B0100068E051E03BE0012186A0FEF79BFF064679
:10B0200040686228304603D0FEF74AFF042010E053
:10B030006222A968FFF706F83046FEF741FFA868CC
:10B040002021095C2C2903D14121095C2C2904D041
:10B050000520E0750B202076CFE72022E96802F07A
:10B06000BDFE06F0BFF8EA6828691146FDF7A6FFA5
:10B070000720F0E767488188491C89B281807D20DC
:10B08000C000814288D90B2020760F2090E7614DC7
:10B090001022E968A868FDF797F8A86820222130F7
:10B0A000E96802F09BFE06F09DF8EA6828691146FF
:10B0B000FDF784FF08201DE0564D1022A868E968BE
:10B0C0000A30FDF781F8A86820224230E96802F0D2
:10B0D00085FE06F087F8EA6828691146FDF76EFFDD
:10B0E000092007E04B481022C16880682030FDF736
:10B0F0006BF80A202076C4E6464E1421B06807F0AB
:10B100006DFFB0682C21017515272021425C2C2A87
:10B1100006D0C2557F1C491CC9B2FFB22D29F5D3F8
:10B12000F780B068403001F065FEB168142208462F
:10B130004031FDF79DF80004000C05D03648A862A8
:10B140000920E0750B20D5E7002001237F1EF06168
:10B15000F9B2B5680EE06A5C303A0B2A04D30A21D2
:10B16000E1750B21217607E05A4310180A22534358
:10B17000491EC9B21529EED2F061207E0B28BAD043
:10B180000D20B7E7234D00262E706E70022001F0CF
:10B190005DFE002804D1A8887D21C900884214D909
:10B1A000022001F0A5FE1A492676C8799D2210409A
:10B1B000C8712E706E70AE800420A075401FE060D4
:10B1C000FEF758F903F0CAFB5BE6401CA88058E67E
:10B1D000012030760E486F638030006AE8620D48C7
:10B1E0000B49C069A8621948A8841948E8840E2050
:10B1F0002076C879BD221040C87102F045FA0120BE
:10B2000000F0DCFD02F044FA3BE600001C270020C1
:10B21000F823002008200020FFFFFF7FC08A0200E3
:10B2200073656375726974795F6465766963652EA9
:10B230007478740073656375726974795F7365728D
:10B24000766963652E74787400000000A57F0000A5
:10B25000341200000F202076707E40280ED0022885
:10B2600012D00420A075A86AE060FEF703F9FEF78B
:10B27000B5F8144988610020307602E60220A075F6
:10B28000104900204870EEE70320EBE72846243001
:10B2900007C86B4607C30C2269460020FFF79AF8DF
:10B2A000102030776F63ECE50749686B4018B842AF
:10B2B0008AD201F027FE00203077E2E50B202076CD
:10B2C000112075E6082000208813000010B53120F9
:10B2D00005F042FB0148407810BD0000DE3300203D
:10B2E00010B5392005F038FB0148407810BD00004A
:10B2F000DE33002010B54721202007F059FB012044
:10B30000FDF725FD0921212007F052FB40212220D5
:10B3100007F04EFB0021232007F04AFB48212420A0
:10B3200007F046FB0821322007F042FB01213320C1
:10B3300007F03EFB262005F00FFB2A21302007F006
:10B3400037FB312005F008FB002010BD10B500F0E0
:10B350000DF810BD10B52F2005F0FEFA0248407818
:10B36000C006C00E10BD0000DE33002010B5214C19
:10B37000E07E002813D03F21382007F019FB302150
:10B380003A2007F015FB10213B2007F011FB0A21A2
:10B390003C2007F00DFB20213D2007F009FB002198
:10B3A000322007F005FB0021332007F001FB472185
:10B3B000202007F0FDFA0021212007F0F9FAE07EB5
:10B3C000002801D0842100E00421222007F0F0FAB7
:10B3D0001821232007F0ECFA4821242007F0E8FA8E
:10B3E00099212E2007F0E4FA0021252007F0E0FA49
:10B3F000002010BDD824002010B50446282005F0F8
:10B4000097FA062202492046FCF7DEFE10BD000036
:10B41000DF33002010B50F2005F09EFA0148407878
:10B4200010BD0000DE330020134610B50A46194651
:10B4300000F012F910BD10B5032903D0022905D080
:10B44000012906D000F046F8002010BD00F010F8E9
:10B45000FAE700F071F8F7E7134610B50A46194607
:10B4600000F0B2F810BD10B500F098F810BD000063
:10B470007CB5154D044628780026002802D02E7091
:10B4800000F064F900F074F9104852210170210CA9
:10B490004170210A8170C4700A2001900C4B042273
:10B4A0000A490096002001F0F7FA08F009F900F0C7
:10B4B0007FFB002806D12878002803D101202870BE
:10B4C00000F0B8F87CBD00002C200020D433002010
:10B4D000DE3300207CB5154D044628780026002870
:10B4E00002D02E7000F032F900F042F9104820210D
:10B4F0000170210C4170210A8170C4700A200190F2
:10B500000C4B04220A490096002001F0C5FA08F00D
:10B51000D7F800F04DFB002806D12878002803D189
:10B520000120287000F086F87CBD00002C2000204F
:10B53000D4330020DE3300207CB5154D0446287836
:10B540000026002802D02E7000F000F900F010F95B
:10B550001048D8210170210C4170210A8170C470FB
:10B560000A2001900C4B04220A490096002001F0A9
:10B5700093FA08F0A5F800F01BFB002806D1287804
:10B58000002803D10120287000F054F87CBD000091
:10B590002C200020D4330020DE33002008B500F03A
:10B5A00049F8074901200870684600F08BF86946A1
:10B5B00004480978817469464978C17408BD00005F
:10B5C0002C20002018240020F7B50F46184E044602
:10B5D000C51930786D1E002803D00020307000F0AF
:10B5E000B5F8200A290A00020902884203D1394627
:10B5F0002046029A0DE0FF21201A01310D1AA9B24E
:10B600002046029A05F090FF029A791B60195219A0
:10B6100089B205F089FF00F0CBFA002806D1307816
:10B62000002803D10120307000F004F8FEBD0000B6
:10B630002C2000201CB50649B92008700A210020E2
:10B640000191044B01220090014901F025FA1CBD33
:10B65000D4330020DE330020F0B5184D044628789E
:10B66000C3B017460E46002803D00020287000F013
:10B670006DF8134803210170210C4170210A81707B
:10B68000C470301D0A2180B20191009002AB0422E7
:10B690000B49002001F000FA324603A93846FCF7B6
:10B6A00093FD00F085FA002806D12878002803D100
:10B6B00001202870FFF7BEFF43B0F0BD2C20002012
:10B6C000D43300207CB5134C05462078002803D0E5
:10B6D0000020207000F03AF80F499F2008700A21DE
:10B6E0000620019100900D4B01220B49002001F032
:10B6F000D3F90A48017929704079687000F058FA46
:10B70000002806D12078002803D101202070FFF7FF
:10B7100091FF7CBD2C200020D4330020DE3300209C
:10B720001CB50849052008700A21062001910090E7
:10B73000054B01220349002001F0AEF9024840798F
:10B740001CBD0000D4330020DE3300201CB50649A8
:10B75000AB2008700A2100200191044B01220090C7
:10B76000014901F099F91CBDD4330020DE330020DB
:10B770001CB50B4800240178002902D00470FFF7A3
:10B78000E5FF0849062008700A200190064B0122B7
:10B790000094002001F080F907F092FF1CBD00002A
:10B7A0002C200020D4330020DE33002010B50846C2
:10B7B00002A102F097FBC0B210BD00004E6F206DD9
:10B7C000657373616765210010B5084602A102F038
:10B7D00089FBC0B210BD00004E6F206D65737361B0
:10B7E0006765210010B502A102F07CFBC0B210BD5C
:10B7F0004E6F2043616C6C6572494421000000006B
:10B8000010B5084C207E052807D001F07DFF0028E8
:10B8100005D1A07F0A380A2801D8012010BD0020D8
:10B8200010BD0000982A002010B507480021C17201
:10B83000032141730121C17304490220C8730449E3
:10B84000052002F007F910BD182C0020B82A0020AE
:10B85000B80B0000F8B5FDF7C1FD054600F0A8F9EA
:10B860000027284C0028E07B02D0002845D1F8BDF5
:10B87000002801D000F028FEE17B224E0220203E6D
:10B880000B0002F05AFB060405080E1C2D3AEEE7E9
:10B89000E0732773F8BD64207562FFF76BF903202E
:10B8A0001CE0706A6430A842F4D20020FFF77EF9F1
:10B8B0000420E0737562E07A401CE072F8BD716AA2
:10B8C000FF319131A942F9D2E17A032906D305204B
:10B8D000E073207B401C20737562F8BDE073F8BDF7
:10B8E0007D22716A12018918A942F8D2217B627BFC
:10B8F000914202D2E073E772F8BDE7730020FFF7D0
:10B9000055F9F8BD182C002010B503490020C87364
:10B91000FFF74CF910BD0000182C00208307FF2210
:10B92000DB0E9A408907090E994000280BDA0007C0
:10B93000000F0838830808489B001818C369934310
:10B940000B43C3617047830804489B001B181868A9
:10B95000904308431860704700ED00E000E400E009
:10B96000FEB50446402007F035F8002501272E4695
:10B97000BF062846B030C0B207F02CF8112007F0FF
:10B9800029F8022007F026F8074860222146876040
:10B990000096064B0020019601F07EF86D1CEDB27A
:10B9A0006034082DE5D3FEBD00050050DE330020D5
:10B9B00010B50446AE2007F00DF8D52007F00AF8C0
:10B9C000802007F007F8A82007F004F83F2007F0D0
:10B9D00001F8D32006F0FEFF002006F0FBFF402018
:10B9E00006F0F8FFAD2006F0F5FF8B2006F0F2FF21
:10B9F000332006F0EFFFA12006F0ECFFC82006F090
:10BA0000E9FFDA2006F0E6FF122006F0E3FF204609
:10BA100000F024F8D92006F0DDFF222006F0DAFF3E
:10BA2000DB2006F0D7FF402006F0D4FFA42006F06C
:10BA3000D1FFA62006F0CEFF10BD00000120024974
:10BA40000006C86070470000000500500120024950
:10BA500000068860704700000005005010B50446DD
:10BA6000812006F0B7FF204606F0B4FF10BD10B5E8
:10BA7000002801D0AF2000E0AE2006F0ABFF10BDE3
:10BA80000348062101710249002030398876704749
:10BA9000C82A002010B5094C00F016FDFDF714FB74
:10BAA000002802D00120FDF7D5FA2079002801D026
:10BAB000002010BD0120207110BD0000C82A002008
:10BAC000F8B5334CFDF78AFC07462079002801D0F1
:10BAD00000F0FAFC207900260125030002F02DFA7F
:10BAE0000844050C1A1F44454F44FDF777FC2060BD
:10BAF000FFF7ACFF022036E02068381A672833D9F8
:10BB00000125244E2D06F5600220FDF720F9B560D1
:10BB1000032028E0CC20FFF74BFF042023E01C4843
:10BB200030388576FDF75AFC1B491C4FC86218480F
:10BB3000103845727978491E03290CD8C673002144
:10BB4000052001F077FF16483946427C20394A77B4
:10BB5000807C8877CD77F87B002803D000210520F2
:10BB600001F068FF05202071F8BD0020FFF77FFF7E
:10BB7000FFF764FFFDF732FC20600720F3E7FDF7D5
:10BB80002DFC2168401A6728EED92671F8BD000007
:10BB9000C82A00200005005078270020182C00201B
:10BBA000982400200149012008737047D82A0020FA
:10BBB0000248007F002800D001207047B82A0020EA
:10BBC00010B50BA0FEF770FB00280CD00CA0FEF700
:10BBD0006BFB012808D00CA0FEF766FB012802D001
:10BBE0000BA0FEF761FB10BD06F090FF10BD00003A
:10BBF0006F74615F73746172742E747874000000E6
:10BC00006170702E62696E0073642E62696E00004E
:10BC100063792E62696E000010B506490028087726
:10BC200007D00548407B5A2803D90021062001F09F
:10BC300011FF10BDB82A0020F823002010B50C49D0
:10BC40000C48FCF7E8FA0B49322048600A496420A6
:10BC500088830220E0310876072080310874074A83
:10BC600000211177044908228039CA72087210BD78
:10BC70009C050000302C0020702F00203031002067
:10BC800000487047302C00200148C07A70470000FF
:10BC9000F02E0020F7B5444C86B020684349401C84
:10BCA0002060896C0026401AFF21F531404F884200
:10BCB00003D90020387102F02BFE3B483D49083083
:10BCC0000190009106A80EC802A805F005FA02AB83
:10BCD00007CB683407C4344D00237435743C02F03C
:10BCE0008DFE696800290FD029686960401AC0106C
:10BCF0000818286003F072FB002807D000200226F5
:10BD0000387102F005FE07E06860F2E726486168D6
:10BD10008030808E884212D805F026FB06AB07CB18
:10BD200002F040FB20488030024611467C314B68CF
:10BD3000D26F89680366C2654166B00702D5304696
:10BD400009B0F0BD06F04CFF1B4D00280ED006AF29
:10BD500007CF012302F0ACFD14480121A038017285
:10BD600006F04CFD2868401C286004E006AF07CFB1
:10BD7000002302F09DFD05F0A1FA00280ED00C482A
:10BD8000A038817A002909D1C07A0326002802D080
:10BD90006868401C6860012000F010F806AD07CD0F
:10BDA000E36F07F0BBF8CAE7302C0020B02D00206D
:10BDB000902F00200A8B0200302000200349002829
:10BDC00001D0034800E0034888607047302000201D
:10BDD000C0390600300B01000C48417CC07B5A2959
:10BDE00001D25A2811D3884207D9421AD2B20A2A5C
:10BDF0000BD35007400F081806E00A1AD2B2102AD7
:10BE000003D35007400F081AC0B27047D82A002049
:10BE100010B5104C6068002819D10F490F486160B7
:10BE200048600F4888600F48C8600F4808610F4895
:10BE300008600F4848620F4888610F4848610F4802
:10BE4000C8610F4808620F48886209F0B7FE606851
:10BE500010BD00002C210020E8380020876302007C
:10BE60007163020017630200436302002D63020046
:10BE700095700200D3620200E9620200FF620200D4
:10BE8000596302007037002030B50446A1B003208A
:10BE9000402269468003FEF737FA0D4920460C78A8
:10BEA000FF2320396A46002C0ED0844200D800209F
:10BEB0004500545DAA185278182C05D23C2A03D2AA
:10BEC0004C778A7721B030BD4B778B770020F9E72C
:10BED000182C0020F0B5A1B06D46FEF783FF234C6F
:10BEE000002808D02248224E8079603E002808D0E1
:10BEF000307C042805D90020A0762076607621B019
:10BF0000F0BD1A4F2037387800281ED00320402279
:10BF100069468003FEF7F8F9B17C00208E46717CFB
:10BF20003B788C460FE029786A78AD1C18290CD232
:10BF30003C2A0AD28C4502D1964511D301E08C45AA
:10BF40000ED3401CC0B28342EDD80020A0762076EC
:10BF5000607638780028D2D00020FFF795FFCEE732
:10BF60000120A07621766276F3E70000F82B00200E
:10BF7000F8240020F0B50327A1B00446BF036E46A5
:10BF80003846FEF7ACFA3220FCF7E1FE20780D4D82
:10BF900040082870202802D92020287001E00028BD
:10BFA00002D00020FFF770FF4022611C3046FCF7F2
:10BFB0000BF9402231463846FEF70CFA052068702E
:10BFC00021B0F0BD182C0020F8B5FDF707FA0646A1
:10BFD000FFF7EEFD002828D1324D6878002801D007
:10BFE00000F072FA69782F4C00270120203C0B00EA
:10BFF00001F0A3FF0504222836465400A17E002943
:10C0000014D02949237E4A7C9A420FD3897C627ED0
:10C0100091420BD36870E7762777E07723487D213C
:10C02000C773C900052001F015FDF8BDE87B0028A5
:10C03000FBD1FEF7BBFDF8BDC8206661FEF79AFD97
:10C0400002201BE06069C830B042F4D20020FEF745
:10C05000ADFD032068706661E07E401CE076F8BDAF
:10C060006169FF319131B142F9D2E17E022905D3F4
:10C0700004206870207F401C2077F8BD6870F8BDF0
:10C080007D22616912018918B142F8D2217F082905
:10C0900001D30520F2E76870E776F8BDFFF71AFFD5
:10C0A0006F70F8BD182C002098240020B82A0020BA
:10C0B00010B50C4606F07AFE024801684C6001217A
:10C0C000817210BD8C230020F8B5154C0E46074632
:10C0D000E088012189021546884202D30020C0432E
:10C0E000F8BD06F063FE2168002008602168486002
:10C0F0002168C87321688D8121684E812168887705
:10C1000021682020887321687F20C8770120A072D1
:10C11000206839464089FEF725FA0620205EF8BDE2
:10C120008C23002010B50D4CE188814215D306F018
:10C130003DFE20688089002801D0FDF73BFC206887
:10C140004089FDF737FC2068C17F7F2905D13F2159
:10C15000C1770120A07200F085F810BD8C2300206B
:10C1600010B50C4606F022FE06490968C87F7F28F4
:10C1700001D0002010BD20222046FCF725F8012028
:10C1800010BD00008C23002010B50C4606F00EFEFA
:10C190000348214600684089FEF7CAF9012010BD16
:10C1A0008C23002010B506F001FE02480068C07B19
:10C1B00010BD00008C23002070B500200A4C012621
:10C1C000E0800546B602284606F0F0FD2068C07FF4
:10C1D000FF2806D0E0886D1C401CADB2E080B5425F
:10C1E000F1D3E08870BD00008C2300200148C08896
:10C1F000704700008C23002070B514460D4606F0F1
:10C20000D5FD054801688989298001684968216050
:10C210000068008970BD00008C23002010B50C461A
:10C2200006F0C4FD024801680C810121817210BD35
:10C230008C23002010B50C4606F0B8FD02480168BA
:10C240000C600121817210BD8C23002010B50C46BA
:10C2500006F0ACFD02480168CC730121817210BD6B
:10C260008C23002010B5064CA07A002807D0208926
:10C27000214680088039FEF7F7F80020A07210BD33
:10C280008C23002010B507490020FEF789F80549E6
:10C290000846803001600021818001818172FFF7B2
:10C2A0008BFF10BD0C23002010B50649002008604C
:10C2B00048608860C86003494039086048600BF0F6
:10C2C00027FE10BD4011014010B50023114A052181
:10C2D000184607F0DDFC002803D00FA2842107F0E8
:10C2E00078FC114A0121114807F0BCFC002803D05A
:10C2F00009A28A2107F06DFC0C480D4A0121001D9E
:10C3000007F0B0FC002803D003A2902107F061FCE5
:10C31000002010BD0C3200202E2E5C736F757263EE
:10C32000655C5254432E630069C50100208B0200F6
:10C33000A5BB010010B505480121002209040068D1
:10C3400007F0EEFC00F0C0F8002010BD208B0200CA
:10C350000A4B10B5084A5943126A074B521A203348
:10C3600008215956E1239B00594309B2521801464E
:10C37000104600F043F810BD7824002080510100E1
:10C380000A4B10B5084A5943126A074B521820331A
:10C3900008215956E1239B00594309B2521801461E
:10C3A000104600F02BF810BD7824002080510100C9
:10C3B00030B509493C250A6A20318C7CCB7C6C4322
:10C3C000E318497CE12424016143C918034B584315
:10C3D0004018101A30BD0000782400208051010060
:10C3E00010B5054B08229A56E1239B005A4380184A
:10C3F00000F004F810BD000098240020F8B50C46A9
:10C4000006462E49FBF7B6FE05462C48E121684357
:10C41000371A2B4820800126A670E670090138469D
:10C42000FBF7A8FEC0B2E121607109014843381A48
:10C430003C21FBF79FFEA0713C213846FBF79AFE9A
:10C44000E1710721E81CFBF795FE2171FF23002114
:10C450006F335F1E228890071DD03846854206D371
:10C46000521C491C2D1AC9B22280C829F2D3207847
:10C47000800712D0134900200A5CAA4208D8A2788B
:10C48000521CA2700A5C401CAD1AC0B20C28F3D337
:10C490007019E070F8BD1846E0E70A4900200C3931
:10C4A0000A5CAA42F4D8A278521CA2700A5C401C12
:10C4B000AD1AC0B20C28F3D3EAE7000080510100A6
:10C4C000B2070000348B020010B5FCF787FF0B4960
:10C4D000C86308462030017E00290DD10121017674
:10C4E000084800220649406807F01AFC002803D0DB
:10C4F00005A2C22107F06DFB10BD000078240020CA
:10C500008F020000208B02002E2E5C736F75726309
:10C51000655C5254432E630010B5FCF75FFF094978
:10C520007D22C96B1201891881420AD20548203048
:10C53000017E002905D0002101760348406807F0FC
:10C540002DFC10BD78240020208B020010B5054C76
:10C55000206807F023FC032100220904206807F06B
:10C56000DFFB10BD208B02007CB5384C606A0028D0
:10C5700011D001A807F06EFB6A46616A019807F0C6
:10C5800062FB0098C60BF0030090616A0818000275
:10C59000000A606205E02D48243007F05BFB606A0A
:10C5A000C60B2A4D4035A8898019A881F0B2FCF746
:10C5B000ADFC606B80196063206A80192062A87CE2
:10C5C000802801D28019A874E889FF212D31884282
:10C5D00001D28019E88100F03FFD002805D01C49F8
:10C5E000887A3C2801D2801988721849206A2C3137
:10C5F000FFF7F6FE154801222030817C837A9942AC
:10C6000012D02A70817201464031C97F00290BD0B7
:10C6100001466031437C8C78A34205D3CC78A34299
:10C6200002D20B785B1E0B70C17B437A994204D017
:10C63000AA704172074B05215970C37A417C8B4225
:10C6400003D00C2900D16A70C1727CBD782400200F
:10C6500038270020182C00207CB500250095019576
:10C66000FCF7BCFE1A4E0446307F002802D0684614
:10C6700000F042F8174800690009C007C00F06D053
:10C68000FEF724FE317F002902D004F003FD7CBDBB
:10C6900004F076FA0E48C030C07E0028F7D0FEF7CE
:10C6A0001FFE4007F3D50A487D222038416FD20093
:10C6B000611A914209D24567FEF794FB0028E6D043
:10C6C0000021084601F0C6F97CBD44677CBD00002E
:10C6D000182400200005005010B50A20FCF737FB95
:10C6E000FEF734FEFEF796FE0249087400F014F8D7
:10C6F00010BD0000182400201CB5028869460A807D
:10C7000042884A80808888800199009802F01EF84B
:10C7100006F07CF91CBD000010B50C4CFCF75EFE69
:10C720000121206021710020E08020816081A081B2
:10C730002061A07320756075A075E175A076E07624
:10C740002076617620776077A07710BDE82B0020F7
:10C7500003490979814201D10120704700207047C7
:10C76000E82B0020F8B58C4C0027FCF737FE0220A0
:10C77000FFF7EEFF00250126002804D10320FFF774
:10C78000E7FF002806D018216156782900DDA6763B
:10C79000824885772079022801D0032804D1E17DE1
:10C7A00002290DD003290BD0012802D1E07D0128F8
:10C7B00006D065752079022806D0032804D009E048
:10C7C000607D401C6075F5E71522A256142A01DB36
:10C7D000A67506E0012804D1152161560A2900DB5F
:10C7E000A5752179E17500F037FC002802D0257687
:10C7F000667602E0207E401C2076A07D002824D0B2
:10C80000207F4006000E2077617F012902D130434E
:10C8100020776577207FC306DB0E8446002108461B
:10C82000324682401A4201D0491CC9B2401CC0B2F3
:10C830000528F5D3032900D3A5756046800704D0E9
:10C8400018216156002900DDA575182161560529BA
:10C8500004DD0120FFF77CFF00280DD1182161566F
:10C860005A290ADD0220FFF773FF002804D10320B4
:10C87000FFF76EFF002800D065760120FFF768FF04
:10C8800000280CD0E07E002805D0012801D0022825
:10C8900003D0032715E0052713E0012711E002204C
:10C8A000FFF756FF002804D10320FFF751FF0028AF
:10C8B00007D0E07E00280DD0012801D002280BD03F
:10C8C0000A27E07E002809D0012801D0022807D0DD
:10C8D0005A2006E00C27F4E70827F2E7642000E07E
:10C8E00050200E2161561F2901DA491CA1730C2228
:10C8F000A25E82420ADB0320FFF72AFF002804D150
:10C900000220FFF725FF002800D0A6760C21615EEB
:10C91000B94201DB012000E0002006F0B7FC0C2149
:10C92000615E052902DB3C20FCF766FA206A0C21D7
:10C9300040002062615E2246002929D0A577502957
:10C9400001DB30432062A581A07F0A2811D3206A31
:10C950000002000A00221146C30700D0521C400802
:10C96000491C2029F8DB082A03D30C482038057617
:10C97000C57525752169002032468240114202D1D9
:10C98000227D521C2275401CC0B21028F4D3F8BD81
:10C99000907F401CA077D6E7E82B0020D824002009
:10C9A000024801218176417770470000E82B002082
:10C9B00070B5FF2109480931094C00254550214631
:10C9C0000BF0FEFA002808D1A079FF2801D00AF068
:10C9D000DFF8657121680020884770BD0030004095
:10C9E0005837002010B50021014809F06FFF10BD35
:10C9F0000040004010B5054C207C002804D00448BD
:10CA000009F0A2FE0020207410BD0000F8230020D1
:10CA1000408B02001FB501236A4613700223537036
:10CA200005239370FF23D37003231371CC23537119
:10CA30005A07002302926A461373002900D001218D
:10CA40005173002814D10B4A69460B4809F080FD48
:10CA5000082807D1084809F077FE064A69460648C3
:10CA600009F076FD002803D004A2742107F0B1F884
:10CA70001FBD0000597B0200408B02002E2E5C730C
:10CA80006F757263655C7370695F6D6173746572F5
:10CA90005F6170692E630000FFB5314C83B0207870
:10CAA0000C9F164600280AD100250120FCF74FF9FB
:10CAB0002078002803D16D1CADB2C82DF5D3294DC7
:10CAC000287C002805D100210398FFF7A3FF01204F
:10CAD0002874207800281ED1234809F035FE002153
:10CAE0000398FFF797FF1E200AF030F81E200AF087
:10CAF0003FF800200AF02AF800200AF039F80A204E
:10CB00000AF024F80A200AF033F814200AF01EF87C
:10CB100014200AF02DF8002020700546FFB20D9871
:10CB20000190F2B200971048069B049909F0A2FD0B
:10CB3000040012D00C4809F007FE00210398FFF70B
:10CB400069FF1420FCF703F96D1CEDB20A2DE6D342
:10CB5000204606A29F2107F03CF807B0F0BD000078
:10CB60003C200020F8230020408B02002E2E5C7316
:10CB70006F757263655C7370695F6D617374657204
:10CB80005F6170692E63000010B50BF057F910BD9E
:10CB9000044901220878504008704968002900D0F3
:10CBA000084770477820002010B5084840680028E2
:10CBB00008D08047002804D0FF21054A413107F002
:10CBC00008F810BD09F0F4F810BD0000EC200020BA
:10CBD000589202007CB50020009001A807F03AF8B6
:10CBE0000D4C6A46616A019807F02DF87D21606B53
:10CBF000C9004843FBF708FD04460D460098FBF7C3
:10CC000003FD064A064BFBF75DFC22462B46FBF76D
:10CC10003FFBFBF72BFD7CBD78240020FCA9F1D263
:10CC20004D62404001480021017070473D200020C6
:10CC300001490020087070473D20002010B5034ACC
:10CC40000121117028DF03F053FB10BD3D200020AF
:10CC500010B5034C0223237029DF03F049FB10BDFC
:10CC60003D20002000B50023FCF772FE00BD00004F
:10CC7000F0B591B02E4F002501266C4636030422F4
:10CC80002146A819FDF740FB2078FF2802D0403547
:10CC9000B542F4D3B54206D33046FDF720FC32202E
:10CCA000FCF755F8002540212046FBF7B4FA386818
:10CCB0000090201D00F0AAFF1D492046A0394A7DA2
:10CCC000203002730A7D42738A7D82730A7EC273AA
:10CCD000CA7D02743A7A4274164A1278C274164AAD
:10CCE000527A8275154A937BC3754B7B0376002B72
:10CCF00001D1012303760E4B2033DF7D47761B7E67
:10CD00008376127BC2760C4A203AD2780277094A9F
:10CD1000403A127D42778A88120A82770979C17770
:10CD200040222146A819FDF755FB012011B0F0BDA6
:10CD300098240020182C002038270020B82A002032
:10CD400010B5064CFCF7B6F9002802D00220FCF71B
:10CD500065F9E08A01210843E08210BD44270020E4
:10CD600010B5FDF7C4FBFCF73FFF3220FBF7EFFFE8
:10CD7000FDF7BEFA10BD10B585B00446684600F058
:10CD800039F86846007C20706846407C60706846D0
:10CD9000807CA0706846C07CE07005B010BD0000CB
:10CDA00010B586B00446684600F024F80FA120466E
:10CDB00001F098F86946C0B2097C2154401C6946CC
:10CDC000C0B2497C2154401C6946C0B2897C2154C0
:10CDD000401C6946C0B2C97C2154401CC0B200212D
:10CDE0002154401CC0B206B010BD00004342414E69
:10CDF000442000003CB514490A6A0092496A019136
:10CE00004821017049214170432181704221C17044
:10CE10006A460021535C1B09092B01D9372400E025
:10CE20003024E3184C0024182371535C1B071B0F9C
:10CE3000092B01D9372500E03025EB18491C89B2B0
:10CE400063710829E6D33CBD40000010054A014645
:10CE5000937B0020002B03D08B4200D10120704730
:10CE60009173FBE7F823002010B5FFF763FAFDF795
:10CE7000ABFFFCF745FE002804D0FDF7B3FF002808
:10CE80000FD014E0FDF7AEFF002801D0002000E035
:10CE90000120FDF72CFB3220FBF759FFFCF7A4FE25
:10CEA00005E00120FDF72EFB3220FBF750FFFDF7D8
:10CEB0001FFA00F0EFFD02F0C5F9FEF781FE00F069
:10CEC0005FFFFCF713F810BD10B5084CFCF7F2F843
:10CED000002807D00120FCF7A1F8E08A8021084350
:10CEE000E08210BD00F00EF810BD000044270020C5
:10CEF00003498A7B824201D1002088737047000079
:10CF0000F823002010B5FDF76DFF002801D0FFF7D2
:10CF1000AFFE35DF10BD000010B508F099FF002806
:10CF200005D00E490C484860C8130D4988610D486A
:10CF3000018CC9B201290ED1818C09070BD1018D59
:10CF40000906090F042906D1808D0006000F02D1C1
:10CF500005490120886010BDDFFF07C000050040C3
:10CF6000006C0040C00F00F0000600403EB5284CA9
:10CF7000FCF734FA274A21688918814205D22179C1
:10CF80000020002900D02071607123480069400A08
:10CF9000C007C00F3BD10BF051FB204D69462868FC
:10CFA00042699047002832D068464078800701D512
:10CFB000012100E00021204605F022FD684640786E
:10CFC000410724D5C00701D0012100E000212046FF
:10CFD00006F04EFB68460078C1068A0F02D1420671
:10CFE000920F05D04006820F890F204605F0FAFE09
:10CFF00068460078C0090AD0286802AAC36901A956
:10D0000098476846C2788178204603F001F93EBD12
:10D0100038270020DC0500000005005040200020DB
:10D0200004488179002903D000218171C0797047BB
:10D03000002070473827002002490022887A8A722F
:10D04000704700003827002010B508F07DFA01492C
:10D05000086010BD4020002010B5FBF7F5FE002849
:10D0600001D0002010BD0148407A10BD38270020B3
:10D0700001488079704700003827002001460448A5
:10D0800003290068C26801D0012110470021FCE794
:10D0900040200020F8B504460D461646FCF79EF9E0
:10D0A000FDF7A0FE00282BD0324629462046FEF789
:10D0B000F1FD040024D0FEF7E7FD012821D000286F
:10D0C0001ED0E1071CD0134C00272646E51DE03694
:10D0D000F935022818D0032812D1606C401C606416
:10D0E00003F050FCA16C4018A064FCF777F9E066EF
:10D0F0000120FBF74DFE6878002809D0401E6870BB
:10D10000F8BD00F02BF8F8BD206C401C2064E7E768
:10D11000B777F8BDF823002070B5FDF763FE00284F
:10D1200018D00D4C00252078002802D003F058FFBD
:10D130002570A078002802D003F0D6FEA570607894
:10D14000002807D06570044C0120C03C256600F023
:10D15000ABF9606670BD0000B824002010B5FEF782
:10D16000C9F8094C01202077FCF738F9214620390D
:10D1700088630020A07700F0C7FA002802D00320BF
:10D18000FFF77CFF10BD00001824002070B5054695
:10D19000FCF724F919490446002D08D1087F00281E
:10D1A0002BD0887F401CC0B28877022825D300206E
:10D1B0000877FFF763FFFBF747FE002807D0FEF76D
:10D1C0001FFB002803D10021042000F043FCFBF7E3
:10D1D0007BFF002802D00020FBF73CFFFEF7C6F8DB
:10D1E000FEF72CFD054D0649203DA86B4018A042D6
:10D1F00002D20020FEF7E2FDAC6370BD18240020CF
:10D20000E0930400F0B50E46294993B01446002877
:10D2100027D0092E3AD001466846FFF799F802AFA9
:10D2200000254022D00139462818FDF76DF83878DE
:10D23000FF2834D002996A46029809049278090EB0
:10D24000C0B28A4226D16946C978814222D1042ED1
:10D2500027D0062E29D0072E25D0092E11D10398CC
:10D2600024E0042E07D0062E0DD0072E06D0092E5E
:10D2700007D1086A04E003C9401801E0C86803E068
:10D28000106013B0F0BD88680009F9E7114600F09E
:10D2900049F9F6E70120000340358542C1D300205B
:10D2A00004E0049802E0069800E005982060E8E7B2
:10D2B00038240020F0B5044687B00020FFF778F846
:10D2C000694604912249002640180590E68126828D
:10D2D00066826F4601252673102290023946301867
:10D2E000FDF712F83878FF2810D00098103640006B
:10D2F000400800900599884224D30498007B0228B6
:10D3000006D003280CD0042810D019E0103619E0FC
:10D31000E0893C30E081032D0FD0042D0DD00FE0CB
:10D32000208A3C302082042D07D004E0608A3C3003
:10D330006082032D01D0022D02D1207B401C20737E
:10D340000498057B0120C0038642C5D307B0F0BD19
:10D350004057FFFFF0B504468DB00020FFF728F8D6
:10D3600000260C960896079600960B90266066603D
:10D370002681668102ADE6822F4626751022900234
:10D3800039463018FCF7C0FF3878FF2818D00298CB
:10D390000B99400040081036029088422AD3287A20
:10D3A000697A4018216809182160EA7A6168891849
:10D3B000616000280BD02089A97A401820810AE0FA
:10D3C0000C98002801D101200C90103612E06089E1
:10D3D000A97A40186081A87B00280BD00098401CD7
:10D3E0000090697B0798081807900421695E0898E7
:10D3F000081808900120C0038642BFD30098002877
:10D4000009D001460798FAF7B5FE207500990898EB
:10D41000FAF7B0FE01E000202075E0820DB0F0BD0B
:10D42000F0B5044687B00020FEF7C2FF00256E4627
:10D4300005960495069025606560E5602F46A56019
:10D440001022900228180599FCF75EFF0098411CF5
:10D4500023D04000400806991035009088420FD92B
:10D46000317A206840182060717A606840186060E6
:10D47000F17AA0684018A060B17AE0684018E060D6
:10D480000120C0038542DBD3A0680001A060E068F2
:10D490000001E060049807B0F0BD002F01D1012722
:10D4A00004951035ECE70000F0B5074685B0002084
:10D4B000FEF77EFF69460025049118492C466E460A
:10D4C000002F01D0471806E0154B5B7C0C2BF9D3DD
:10D4D00012494942F6E71022900231462018FCF723
:10D4E00013FF3078FF280FD0009810344000400818
:10D4F0000090B8420BD90498007B022806D003287C
:10D5000004D0042802D002E0103400E03C350120B1
:10D51000C0038442DFD3284605B0F0BD4057FFFF6B
:10D5200098240020F0B50D461A4993B0497C0C2987
:10D5300001D3401EC0B200281ED001466846FEF747
:10D5400007FF0024012702AE7F0340223146E01985
:10D55000FCF7DAFE3078FF2817D002996A46029865
:10D5600009049278090EC0B28A4209D16946C97885
:10D57000814205D1039809E00648A038406E05E0D5
:10D580000120000340348442DFD30020286013B020
:10D59000F0BD00009824002038B50D460446012156
:10D5A000284603F01FF9684603F08AFA34486A46B1
:10D5B000006A3C3820605088A08069782172A87881
:10D5C00060722A79A272EA78E2722A7822736A4635
:10D5D000127862736A465278A273EA884018E28031
:10D5E0003C2803D92648002160308177684640787E
:10D5F000002828D0607A962807D996382D2802D995
:10D60000400894301EE086301CE0502805D9503880
:10D610002D2800D940087D3014E0217A4018782860
:10D6200005D97838232800D940086F300AE06428EB
:10D6300001D9801C06E0502801D9103002E03C28B6
:10D6400001D917306073607A217A4018042801D913
:10D65000FFF7A6F9E0880121C9030843E080607B59
:10D66000282804D907494A7C904201D9487438BD1A
:10D67000121AD2B21E2AF9D952088018F6E7000011
:10D6800078240020D82A002010B5FEF7D7FA10BD64
:10D6900010B50CA0FCF708FE012802D001F088FEAE
:10D6A00010BD012107A0FCF755FC04461C220B49C4
:10D6B000FCF7C8FC2046FCF703FC02A0FCF7ACFB1F
:10D6C00010BD000061637469766974795F696E6981
:10D6D000745F746F74616C2E736B64003824002067
:10D6E00001490020086070470025004010B5FEF792
:10D6F000D1F97D210901012000F09CF901490120A7
:10D70000C87210BDB82A00200348007E002801D04E
:10D710000020704701207047982A00200948002106
:10D72000827F0948182A06D20A2A01D3142A02D96C
:10D730000177417781771A2A02D90177417781777A
:10D7400070470000982A002078240020F8B5B24DD8
:10D75000FBF744FE0646032000022C18A17B00299B
:10D760001ED0207BAD4900270091030000F0E5FBAF
:10D770000C18074963B598C2FBFA209EF9180321DB
:10D78000607B090200280CD0A34867730C30FAF7BD
:10D7900042FDA1488021D93004F03EFE04F092FE03
:10D7A000F8BD03CD4018B042FAD27D21C9009FE0F8
:10D7B000607B002817D06773FBF746FB002803D176
:10D7C000FBF74EFB002803D07D21C9000A2007E0AB
:10D7D000FDF708FB00282AD0012001F075FFF8BDF5
:10D7E00000F028F9F8BD7D202968C0000818B04273
:10D7F00003D3FFF73DFC0028F4D07D21090106206A
:10D8000011E0607B0028EDD06773FDF7EBFA00288C
:10D810000DD0FBF725FB002802D00A20207304E07E
:10D820007D21C900072000F005F9AE60F8BD7D211B
:10D83000C9000320D4E7607B002807D0012067736C
:10D840000346152201460090062019E003CD083D4D
:10D850004018B042EAD27D20C0002E606860FDF71B
:10D86000CFFA002813D06C486D49AC38406B301AA1
:10D87000884208D20120014600900023162207208A
:10D8800001F0CCF9F8BD64488C380776F8BDFEF796
:10D890008FF9002802D00320A0741AE0002127E0AD
:10D8A000CA783146284602F065F9F8BD607B002849
:10D8B00009D0677301200090002314220221062062
:10D8C00001F0ACF9B1E77D20A96800010818B04269
:10D8D000EBD27D21C900072082E7607B002801D0C0
:10D8E0006773DBE703CD4018B042DED27D214901EA
:10D8F000022075E7FEF75CF9002807D00320A0742A
:10D900007D21C900072000F095F813E0FDF76AFAC1
:10D91000002807D0FDF774FA002807D07D21C90040
:10D92000032015E07D214901022011E005F072FB82
:10D93000002801D0AE600DE0A07C0A380A2809D981
:10D9400003CD083D4018B04204D2FF219131072099
:10D9500000F070F8E17F33480090002904D0077987
:10D9600003E03DE027E029E002277D20C000474397
:10D97000A07C152808D1FFF76FFB002804D0009881
:10D9800047797D20C00047432749A8687918401887
:10D99000B0428AD2FBF758FA01460B20002908D082
:10D9A000224AA9688918B14292D22073FFF7D6FBA8
:10D9B000F8BD2073F8BD02F0EDFCF8BD607B0028D7
:10D9C0000AD06773A07C2A2801D1E07CA074C0B281
:10D9D000012101F001FEF8BDFF21F5310620FFE62F
:10D9E00003CD4018B042F6D2FEF74AF82773A77568
:10D9F000E775E777009847700D48C777FFF78EFE09
:10DA000004F00AFF0748E038007F002800D0032018
:10DA1000FFF734FBF8BD0000A4270020C42A002033
:10DA200060EA0000F8240020A08601001027000012
:10DA3000F82B002010B5064C032212020123A21875
:10DA4000537310736160FBF7C9FC206010BD0000C8
:10DA5000A427002070B50C460546FEF71BF8FBF71F
:10DA6000BDFC0A49001B486301200949002DC8720A
:10DA700002D00021284605E0FFF746FE002803D02B
:10DA800000210920FFF7D6FF70BD00007827002095
:10DA9000B82A00201348002101614B224161828293
:10DAA00046220282AA2242828175242242830E4AA1
:10DAB0000260520042600D4A8260C260017701221A
:10DAC00042778177C177203001704170C1708171D8
:10DAD000C17181700522027219224272044AD17208
